Resitev prednaloge:
{ "hex": "0200000007b3e563cbe59e12669873f71b375bac76aefbaac674fa3dbfdeae8a0c13e5297100000000484730440220474ef2477e537a05ea0741034b55244cacba2c3bc85a626fd4d118b1c66e810302203c30c47e5a75f7b564edc1784bccedb0266a10faef06df3af5f9b4de9429d63a41feffffff6db3f7fed3c7244e0d858c2bcb5b2662d714963792b5cd70c5f55a41bb0262470000000049483045022100d997e2d16cda0511aaee48d424e8ee213861875ba7fad828561b28be00e53e2902207ad5d1bc18231b50f52530676e21260584262219cec864741a634de49e4450bc41feffffffe411c856542378555212557e692eb25a1bc9fdeb8fe71240bf83aa5617b4ec3a0000000048473044022022d67bf10842c404da8685d0edea5d39ccb1972ac80d629328d6ecebc8752ce602204bca8486d9fb88b91f41e64e79e0c9d3339e88f0558c75c198349a3b390f1f1841feffffffd679d6a495d1d1b1896a8d7cc38b89472f2ce43ca6ca58899aa2d94852b7b9280000000049483045022100dbb89f37efffb20a748cd7fb60b995decec8fcaba1eec36d0668581974638b41022070dd25dc044a68ecaa6488545b177ebc84f2d2f374e78a978bdb56d91e8904fc41fefffffff313411e1b7565a3593dd80b84b33adf84a1a2f1b627c137829086b57441d0e8000000004847304402205edeaac18464a266b9f1f0bca80695ee03dc5647779f0551795d4b3eae66620402206af204a51a4e345bdd49fb80e7766260fd11d37d61a46e80aeef11bbb974796141feffffff948813d74cb85ac72595cb9e220e77d7c8eba312451be1ac04bc4f1c749dac460000000049483045022100a39cd0745a00c6924b781859509901a00e57a674a82aa0ee59c88619c17d8ec5022040b426a11b12579627d7ef8c036240b77cf4020163d44e2d23fa96eb7fc617f441feffffff9067cf265a4f943fe00f3b30619e89f933eabb56bef6fecb9723afb2ab6429ee0000000048473044022033a3ebb582153238aa63ba74ef36a8313130ad5c286ee5c1d6882d26eec0c2d802204051ca37d59656f84ed7e7fe78d68aa11e6049027dc40f6f1c421c3a0ed6d5bc41feffffff01000000000000000013006a1042455354203230313920536b796e657400000000", "complete": true }


Berljiva oblika:
{
  "txid": "ba0251ebee0cc17f5db51b83815516696f0694fe0a18eec1196269e19adc8193",
  "hash": "ba0251ebee0cc17f5db51b83815516696f0694fe0a18eec1196269e19adc8193",
  "version": 2,
  "size": 830,
  "locktime": 0,
  "vin": [
    {
      "txid": "f4eba9b0023dbebe5318ef31070b753c85a6031099993dd7cf65fabac0f5aaa2",
      "vout": 0,
      "scriptSig": {
        "asm": "304402206bddb1d792cf007ce78c0a0bf6980b0136efcdba0025edb17cc041e97a63f0ec022041f509ed89150cfab5bfbe69f7b326bc7073bfa96b6118af89b1573a7142ee4e[ALL|FORKID]",
        "hex": "47304402206bddb1d792cf007ce78c0a0bf6980b0136efcdba0025edb17cc041e97a63f0ec022041f509ed89150cfab5bfbe69f7b326bc7073bfa96b6118af89b1573a7142ee4e41"
      },
      "sequence": 4294967294
    },
    {
      "txid": "476202bb415af5c570cdb592379614d762265bcb2b8c850d4e24c7d3fef7b36d",
      "vout": 0,
      "scriptSig": {
        "asm": "3045022100ec5a9578fa31dd1ee24423e5f0d01ab6ac2813742e74f9d52a17f020ad7c140f0220653f05f3e212961269aca423c9b86748bc130f2c3286852c24e09dd6bf860ca3[ALL|FORKID]",
        "hex": "483045022100ec5a9578fa31dd1ee24423e5f0d01ab6ac2813742e74f9d52a17f020ad7c140f0220653f05f3e212961269aca423c9b86748bc130f2c3286852c24e09dd6bf860ca341"
      },
      "sequence": 4294967294
    },
    {
      "txid": "7f22e6650b6adb2fa08c07f8d50c7745a6efec9be118f574bda593f2c95be8c2",
      "vout": 0,
      "scriptSig": {
        "asm": "3044022012dc0e5d4bfbf85f4a1807d3925c3fb44ae1ab5f68bbbdc681ccccac7d1435a40220220bbc030570c34059131554e0fb2dac30bcffd050829fd49fe227235e4c95f2[ALL|FORKID]",
        "hex": "473044022012dc0e5d4bfbf85f4a1807d3925c3fb44ae1ab5f68bbbdc681ccccac7d1435a40220220bbc030570c34059131554e0fb2dac30bcffd050829fd49fe227235e4c95f241"
      },
      "sequence": 4294967294
    },
    {
      "txid": "20f67e57a2fbc269c07c84f2e00bb3e6e555021e3b558f3fd548f5d8a304dd22",
      "vout": 0,
      "scriptSig": {
        "asm": "3044022006a11c00ca029f79645b927caaffcb2a91a8ec3707f2ec2f0481cd953df1972e02200683cd7718dd21d7fad1ed2471e55a1da578c1cbda7d821824c013d375db4bfb[ALL|FORKID]",
        "hex": "473044022006a11c00ca029f79645b927caaffcb2a91a8ec3707f2ec2f0481cd953df1972e02200683cd7718dd21d7fad1ed2471e55a1da578c1cbda7d821824c013d375db4bfb41"
      },
      "sequence": 4294967294
    },
    {
      "txid": "754fefa1b3446fb8ef320781f1f1b660d1617cff9fb67b00fce357b50a85f20d",
      "vout": 0,
      "scriptSig": {
        "asm": "3044022059b65a942b3fa2c9275ac1684c919afe69999c6cd59be99f25df5f6987de05f8022035af628608e6d9e8ebd96ccf0452a60aa6cd4ce1be28ed545cd5bcb67ab2306b[ALL|FORKID]",
        "hex": "473044022059b65a942b3fa2c9275ac1684c919afe69999c6cd59be99f25df5f6987de05f8022035af628608e6d9e8ebd96ccf0452a60aa6cd4ce1be28ed545cd5bcb67ab2306b41"
      },
      "sequence": 4294967294
    },
    {
      "txid": "0fd2786deca176e4c7def683b2761ff705248311db1ff7a10bc128db38a6d4eb",
      "vout": 0,
      "scriptSig": {
        "asm": "3044022074b380239d4fcf1df9badbd77d5e1371d8e2d3459930c79313730ebaee5ba95902204d7dd858862bda9b683e3d7fb74021ebccf7f407a35c877c7180264bba8fa1de[ALL|FORKID]",
        "hex": "473044022074b380239d4fcf1df9badbd77d5e1371d8e2d3459930c79313730ebaee5ba95902204d7dd858862bda9b683e3d7fb74021ebccf7f407a35c877c7180264bba8fa1de41"
      },
      "sequence": 4294967294
    },
    {
      "txid": "a66fe71cac7eb33649476e34a7bf40d07ae7d0ad250f27ee8bbdee56c1f43c05",
      "vout": 0,
      "scriptSig": {
        "asm": "3044022035463cdc2778c2cdea4164bf969e7248a893b801d317ea8c0ff44f41e68166b802207055e590be407438426f854d9aeb29300a71caae593fe29141f6f3b699e058c3[ALL|FORKID]",
        "hex": "473044022035463cdc2778c2cdea4164bf969e7248a893b801d317ea8c0ff44f41e68166b802207055e590be407438426f854d9aeb29300a71caae593fe29141f6f3b699e058c341"
      },
      "sequence": 4294967294
    }
  ],
  "vout": [
    {
      "value": 0.00,
      "n": 0,
      "scriptPubKey": {
        "asm": "0 OP_RETURN 42455354203230313920536b796e6574",
        "hex": "006a1042455354203230313920536b796e6574",
        "type": "nulldata"
      }
    }
  ],
  "hex": "0200000007a2aaf5c0bafa65cfd73d99991003a6853c750b0731ef1853bebe3d02b0a9ebf4000000004847304402206bddb1d792cf007ce78c0a0bf6980b0136efcdba0025edb17cc041e97a63f0ec022041f509ed89150cfab5bfbe69f7b326bc7073bfa96b6118af89b1573a7142ee4e41feffffff6db3f7fed3c7244e0d858c2bcb5b2662d714963792b5cd70c5f55a41bb0262470000000049483045022100ec5a9578fa31dd1ee24423e5f0d01ab6ac2813742e74f9d52a17f020ad7c140f0220653f05f3e212961269aca423c9b86748bc130f2c3286852c24e09dd6bf860ca341feffffffc2e85bc9f293a5bd74f518e19becefa645770cd5f8078ca02fdb6a0b65e6227f0000000048473044022012dc0e5d4bfbf85f4a1807d3925c3fb44ae1ab5f68bbbdc681ccccac7d1435a40220220bbc030570c34059131554e0fb2dac30bcffd050829fd49fe227235e4c95f241feffffff22dd04a3d8f548d53f8f553b1e0255e5e6b30be0f2847cc069c2fba2577ef6200000000048473044022006a11c00ca029f79645b927caaffcb2a91a8ec3707f2ec2f0481cd953df1972e02200683cd7718dd21d7fad1ed2471e55a1da578c1cbda7d821824c013d375db4bfb41feffffff0df2850ab557e3fc007bb69fff7c61d160b6f1f1810732efb86f44b3a1ef4f750000000048473044022059b65a942b3fa2c9275ac1684c919afe69999c6cd59be99f25df5f6987de05f8022035af628608e6d9e8ebd96ccf0452a60aa6cd4ce1be28ed545cd5bcb67ab2306b41feffffffebd4a638db28c10ba1f71fdb11832405f71f76b283f6dec7e476a1ec6d78d20f0000000048473044022074b380239d4fcf1df9badbd77d5e1371d8e2d3459930c79313730ebaee5ba95902204d7dd858862bda9b683e3d7fb74021ebccf7f407a35c877c7180264bba8fa1de41feffffff053cf4c156eebd8bee270f25add0e77ad040bfa7346e474936b37eac1ce76fa60000000048473044022035463cdc2778c2cdea4164bf969e7248a893b801d317ea8c0ff44f41e68166b802207055e590be407438426f854d9aeb29300a71caae593fe29141f6f3b699e058c341feffffff01000000000000000013006a1042455354203230313920536b796e657400000000"
}
